{
  "_format": "hh3-artifact-1",
  "contractName": "GravityPayment",
  "sourceName": "contracts/GravityPayment.sol",
  "abi": [
    {
      "inputs": [
        {
          "internalType": "address",
          "name": "_poolManager",
          "type": "address"
        },
        {
          "internalType": "address",
          "name": "_mneeToken",
          "type": "address"
        },
        {
          "internalType": "address",
          "name": "_swapHook",
          "type": "address"
        },
        {
          "internalType": "address",
          "name": "_tokenRouter",
          "type": "address"
        }
      ],
      "stateMutability": "nonpayable",
      "type": "constructor"
    },
    {
      "inputs": [
        {
          "internalType": "uint256",
          "name": "required",
          "type": "uint256"
        },
        {
          "internalType": "uint256",
          "name": "received",
          "type": "uint256"
        }
      ],
      "name": "InsufficientOutput",
      "type": "error"
    },
    {
      "inputs": [],
      "name": "InvalidAmount",
      "type": "error"
    },
    {
      "inputs": [
        {
          "internalType": "uint256",
          "name": "slippage",
          "type": "uint256"
        }
      ],
      "name": "InvalidSlippageTolerance",
      "type": "error"
    },
    {
      "inputs": [],
      "name": "InvalidSwapPath",
      "type": "error"
    },
    {
      "inputs": [
        {
          "internalType": "address",
          "name": "owner",
          "type": "address"
        }
      ],
      "name": "OwnableInvalidOwner",
      "type": "error"
    },
    {
      "inputs": [
        {
          "internalType": "address",
          "name": "account",
          "type": "address"
        }
      ],
      "name": "OwnableUnauthorizedAccount",
      "type": "error"
    },
    {
      "inputs": [
        {
          "internalType": "uint256",
          "name": "paymentId",
          "type": "uint256"
        }
      ],
      "name": "PaymentAlreadyProcessed",
      "type": "error"
    },
    {
      "inputs": [],
      "name": "ReentrancyGuardReentrantCall",
      "type": "error"
    },
    {
      "inputs": [
        {
          "internalType": "address",
          "name": "token",
          "type": "address"
        }
      ],
      "name": "SafeERC20FailedOperation",
      "type": "error"
    },
    {
      "inputs": [
        {
          "internalType": "address",
          "name": "token",
          "type": "address"
        }
      ],
      "name": "TokenNotSupported",
      "type": "error"
    },
    {
      "anonymous": false,
      "inputs": [
        {
          "indexed": true,
          "internalType": "address",
          "name": "previousOwner",
          "type": "address"
        },
        {
          "indexed": true,
          "internalType": "address",
          "name": "newOwner",
          "type": "address"
        }
      ],
      "name": "OwnershipTransferred",
      "type": "event"
    },
    {
      "anonymous": false,
      "inputs": [
        {
          "indexed": true,
          "internalType": "uint256",
          "name": "paymentId",
          "type": "uint256"
        },
        {
          "indexed": true,
          "internalType": "uint256",
          "name": "eventId",
          "type": "uint256"
        },
        {
          "indexed": true,
          "internalType": "address",
          "name": "payer",
          "type": "address"
        },
        {
          "indexed": false,
          "internalType": "address",
          "name": "recipient",
          "type": "address"
        },
        {
          "indexed": false,
          "internalType": "address",
          "name": "originalToken",
          "type": "address"
        },
        {
          "indexed": false,
          "internalType": "uint256",
          "name": "originalAmount",
          "type": "uint256"
        },
        {
          "indexed": false,
          "internalType": "uint256",
          "name": "mneeAmount",
          "type": "uint256"
        },
        {
          "indexed": false,
          "internalType": "string",
          "name": "swapPath",
          "type": "string"
        },
        {
          "indexed": false,
          "internalType": "uint256",
          "name": "timestamp",
          "type": "uint256"
        }
      ],
      "name": "PaymentMade",
      "type": "event"
    },
    {
      "anonymous": false,
      "inputs": [
        {
          "indexed": false,
          "internalType": "uint256",
          "name": "oldFee",
          "type": "uint256"
        },
        {
          "indexed": false,
          "internalType": "uint256",
          "name": "newFee",
          "type": "uint256"
        }
      ],
      "name": "ProtocolFeeUpdated",
      "type": "event"
    },
    {
      "anonymous": false,
      "inputs": [
        {
          "indexed": false,
          "internalType": "uint256",
          "name": "oldSlippage",
          "type": "uint256"
        },
        {
          "indexed": false,
          "internalType": "uint256",
          "name": "newSlippage",
          "type": "uint256"
        }
      ],
      "name": "SlippageUpdated",
      "type": "event"
    },
    {
      "anonymous": false,
      "inputs": [
        {
          "indexed": true,
          "internalType": "address",
          "name": "token",
          "type": "address"
        },
        {
          "indexed": false,
          "internalType": "bool",
          "name": "supported",
          "type": "bool"
        }
      ],
      "name": "TokenRegistered",
      "type": "event"
    },
    {
      "inputs": [],
      "name": "BASIS_POINTS",
      "outputs": [
        {
          "internalType": "uint256",
          "name": "",
          "type": "uint256"
        }
      ],
      "stateMutability": "view",
      "type": "function"
    },
    {
      "inputs": [],
      "name": "MNEE_TOKEN",
      "outputs": [
        {
          "internalType": "address",
          "name": "",
          "type": "address"
        }
      ],
      "stateMutability": "view",
      "type": "function"
    },
    {
      "inputs": [],
      "name": "defaultSlippageTolerance",
      "outputs": [
        {
          "internalType": "uint256",
          "name": "",
          "type": "uint256"
        }
      ],
      "stateMutability": "view",
      "type": "function"
    },
    {
      "inputs": [
        {
          "internalType": "address",
          "name": "tokenIn",
          "type": "address"
        },
        {
          "internalType": "uint256",
          "name": "amountIn",
          "type": "uint256"
        },
        {
          "internalType": "address[]",
          "name": "swapPath",
          "type": "address[]"
        }
      ],
      "name": "getQuote",
      "outputs": [
        {
          "internalType": "uint256",
          "name": "expectedMNEE",
          "type": "uint256"
        }
      ],
      "stateMutability": "view",
      "type": "function"
    },
    {
      "inputs": [
        {
          "internalType": "address",
          "name": "token",
          "type": "address"
        }
      ],
      "name": "isTokenSupported",
      "outputs": [
        {
          "internalType": "bool",
          "name": "isSupported",
          "type": "bool"
        }
      ],
      "stateMutability": "view",
      "type": "function"
    },
    {
      "inputs": [],
      "name": "maxSlippageTolerance",
      "outputs": [
        {
          "internalType": "uint256",
          "name": "",
          "type": "uint256"
        }
      ],
      "stateMutability": "view",
      "type": "function"
    },
    {
      "inputs": [],
      "name": "nextPaymentId",
      "outputs": [
        {
          "internalType": "uint256",
          "name": "",
          "type": "uint256"
        }
      ],
      "stateMutability": "view",
      "type": "function"
    },
    {
      "inputs": [],
      "name": "owner",
      "outputs": [
        {
          "internalType": "address",
          "name": "",
          "type": "address"
        }
      ],
      "stateMutability": "view",
      "type": "function"
    },
    {
      "inputs": [
        {
          "internalType": "uint256",
          "name": "eventId",
          "type": "uint256"
        },
        {
          "internalType": "address",
          "name": "tokenIn",
          "type": "address"
        },
        {
          "internalType": "uint256",
          "name": "amountIn",
          "type": "uint256"
        },
        {
          "internalType": "address",
          "name": "recipient",
          "type": "address"
        },
        {
          "internalType": "uint256",
          "name": "minMNEEOut",
          "type": "uint256"
        },
        {
          "internalType": "address[]",
          "name": "swapPath",
          "type": "address[]"
        }
      ],
      "name": "pay",
      "outputs": [
        {
          "internalType": "uint256",
          "name": "paymentId",
          "type": "uint256"
        },
        {
          "internalType": "uint256",
          "name": "mneeAmount",
          "type": "uint256"
        }
      ],
      "stateMutability": "nonpayable",
      "type": "function"
    },
    {
      "inputs": [
        {
          "internalType": "uint256",
          "name": "",
          "type": "uint256"
        }
      ],
      "name": "payments",
      "outputs": [
        {
          "internalType": "uint256",
          "name": "eventId",
          "type": "uint256"
        },
        {
          "internalType": "address",
          "name": "payer",
          "type": "address"
        },
        {
          "internalType": "address",
          "name": "originalToken",
          "type": "address"
        },
        {
          "internalType": "uint256",
          "name": "originalAmount",
          "type": "uint256"
        },
        {
          "internalType": "uint256",
          "name": "mneeAmount",
          "type": "uint256"
        },
        {
          "internalType": "address",
          "name": "recipient",
          "type": "address"
        },
        {
          "internalType": "uint256",
          "name": "timestamp",
          "type": "uint256"
        },
        {
          "internalType": "string",
          "name": "swapPath",
          "type": "string"
        }
      ],
      "stateMutability": "view",
      "type": "function"
    },
    {
      "inputs": [],
      "name": "poolManager",
      "outputs": [
        {
          "internalType": "contract IPoolManager",
          "name": "",
          "type": "address"
        }
      ],
      "stateMutability": "view",
      "type": "function"
    },
    {
      "inputs": [],
      "name": "protocolFee",
      "outputs": [
        {
          "internalType": "uint256",
          "name": "",
          "type": "uint256"
        }
      ],
      "stateMutability": "view",
      "type": "function"
    },
    {
      "inputs": [],
      "name": "renounceOwnership",
      "outputs": [],
      "stateMutability": "nonpayable",
      "type": "function"
    },
    {
      "inputs": [
        {
          "internalType": "uint256",
          "name": "newSlippage",
          "type": "uint256"
        }
      ],
      "name": "setDefaultSlippageTolerance",
      "outputs": [],
      "stateMutability": "nonpayable",
      "type": "function"
    },
    {
      "inputs": [
        {
          "internalType": "uint256",
          "name": "newFee",
          "type": "uint256"
        }
      ],
      "name": "setProtocolFee",
      "outputs": [],
      "stateMutability": "nonpayable",
      "type": "function"
    },
    {
      "inputs": [
        {
          "internalType": "address",
          "name": "token",
          "type": "address"
        },
        {
          "internalType": "bool",
          "name": "supported",
          "type": "bool"
        }
      ],
      "name": "setSupportedIntermediateToken",
      "outputs": [],
      "stateMutability": "nonpayable",
      "type": "function"
    },
    {
      "inputs": [
        {
          "internalType": "address",
          "name": "",
          "type": "address"
        }
      ],
      "name": "supportedIntermediateTokens",
      "outputs": [
        {
          "internalType": "bool",
          "name": "",
          "type": "bool"
        }
      ],
      "stateMutability": "view",
      "type": "function"
    },
    {
      "inputs": [],
      "name": "swapHook",
      "outputs": [
        {
          "internalType": "contract MNEESwapHook",
          "name": "",
          "type": "address"
        }
      ],
      "stateMutability": "view",
      "type": "function"
    },
    {
      "inputs": [],
      "name": "tokenRouter",
      "outputs": [
        {
          "internalType": "contract TokenRouter",
          "name": "",
          "type": "address"
        }
      ],
      "stateMutability": "view",
      "type": "function"
    },
    {
      "inputs": [
        {
          "internalType": "address",
          "name": "newOwner",
          "type": "address"
        }
      ],
      "name": "transferOwnership",
      "outputs": [],
      "stateMutability": "nonpayable",
      "type": "function"
    }
  ],
  "bytecode": "0x6101003461016b57601f6119e938819003918201601f19168301916001600160401b0383118484101761016f5780849260809460405283398101031261016b5761004881610183565b9061005560208201610183565b9061006e606061006760408401610183565b9201610183565b913315610158575f8054336001600160a01b0319821681178355604051969290916001600160a01b0316907f8be0079c531659141344cd1fd0a4f28419497f9722a3daafe3b4186f6b6457e09080a3600180556101f46002556107d060035560646004556001600160a01b0390811660805260e09190915290811660a0521660c05261185190816101988239608051816101cf015260a0518181816102130152611535015260c05181818161030701528181610d1401528181610f4101528181611261015261149f015260e0518181816105560152818161064d01528181610ee2015261121f0152f35b631e4fbdf760e01b5f525f60045260245ffd5b5f80fd5b634e487b7160e01b5f52604160045260245ffd5b51906001600160a01b038216820361016b5756fe6080806040526004361015610012575f80fd5b5f3560e01c9081630ac0b2881461101457508063102d800a14610fb657806319fead9814610e63578063715018a614610e0c57806375151b6314610ddf5780637537438614610585578063759adec314610541578063787dce3d146104d15780637ec77c67146104b457806387d817891461037a5780638da5cb5b146103535780639b22b92014610336578063a562bdba146102f2578063ad1b61841461025f578063b0e21e8a14610242578063c2dbba5f146101fe578063dc4c90d3146101ba578063de0f4ddb1461019d578063e1f1c4a7146101815763f2fde38b146100f8575f80fd5b3461017d57602036600319011261017d5761011161104d565b610119611361565b6001600160a01b0316801561016a575f80546001600160a01b03198116831782556001600160a01b0316907f8be0079c531659141344cd1fd0a4f28419497f9722a3daafe3b4186f6b6457e09080a3005b631e4fbdf760e01b5f525f60045260245ffd5b5f80fd5b3461017d575f36600319011261017d5760206040516127108152f35b3461017d575f36600319011261017d576020600254604051908152f35b3461017d575f36600319011261017d576040517f00000000000000000000000000000000000000000000000000000000000000006001600160a01b03168152602090f35b3461017d575f36600319011261017d576040517f00000000000000000000000000000000000000000000000000000000000000006001600160a01b03168152602090f35b3461017d575f36600319011261017d576020600454604051908152f35b3461017d57604036600319011261017d5761027861104d565b6024359081151580920361017d5760207fc91dad84775f76388892324731cef02a81b88a3c0c59b97e57eae062e48f47aa916102b2611361565b60018060a01b031692835f526006825260405f2060ff1981541660ff8316179055835f526007825260405f20600160ff19825416179055604051908152a2005b3461017d575f36600319011261017d576040517f00000000000000000000000000000000000000000000000000000000000000006001600160a01b03168152602090f35b3461017d575f36600319011261017d576020600854604051908152f35b3461017d575f36600319011261017d575f546040516001600160a01b039091168152602090f35b3461017d57602036600319011261017d576004355f52600560205260405f20805460018060a01b036001830154169060018060a01b03600284015416600384015493600481015460018060a01b036005830154169060076006840154930196604051945f988054906103eb826110a8565b808952916001811690811561048d5750600114610453575b50506104168661044f98999a03876110e0565b6040519889988952602089015260408801526060870152608086015260a085015260c084015261010060e0840152610100830190611102565b0390f35b9099505f5260205f205f905b8a821061047757508601602001985061041686610403565b6001816020925483858c0101520191019061045f565b60ff19166020808b019190915292151560051b89019092019a506104169150879050610403565b3461017d575f36600319011261017d576020600354604051908152f35b3461017d57602036600319011261017d576004356104ed611361565b6103e8811161052f5760407fb404cac19fb1cbeff98d325795b08886e3cd8fe8cb1a2f193aac66f13fb239c391600454908060045582519182526020820152a1005b63295eaa3d60e01b5f5260045260245ffd5b3461017d575f36600319011261017d576040517f00000000000000000000000000000000000000000000000000000000000000006001600160a01b03168152602090f35b3461017d5760c036600319011261017d576024356004356001600160a01b03821680830361017d576064356001600160a01b0381169360443592919085820361017d576084359060a43567ffffffffffffffff811161017d576105ec903690600401611077565b600260015414610dd05760026001558615610dc1578315610dc1578015610db257856001600160a01b0361061f84611136565b1603610db2575f1981018181116109185761063e610643918385611126565b611136565b6001600160a01b037f000000000000000000000000000000000000000000000000000000000000000081169116819003610db2576008545f1981146109185760010193846008556106c46040516323b872dd60e01b60208201523360248201523060448201528a6064820152606481526106be6084826110e0565b896117b2565b6106d76106d236858761114a565b6113d7565b6001831480610d98575b80610d8f575b8015610cec57895b8015610cd5576002546127100390612710821161091857612710916107139161134e565b0496878111610ccd575b50869015610cb157505087945b808610610c9a57506127106107416004548761134e565b0480610c6c575b508461076494959661075d929b999a9b61176f565b369161114a565b90604092835161077485826110e0565b60018152605b60f81b60208201525f9860409760609790925b86518c1015610978578b610940575b6001600160a01b036107ae8d896113c3565b511688516107bc8a826110e0565b601081526f181899199a1a9b1b9c1cb0b131b232b360811b60208201528951906107e68c836110e0565b602a825260208201928d36853782511561092c576030845382516001101561092c57908b91607860218501535f5b6014811061087257505050600180946020809561086a958495519784899551918291018587015e840190601160f91b84830152518092602183015e0101601160f91b838201520301601e198101845201826110e0565b9b019a61078d565b90919250600c810180821161091857602081101561092c5782901a906001600160f81b03196108a8600484901c600f168661180a565b5116918160011b928284046002148315171561091857836002019081600211610918576108d8905f1a918861180a565b536001600160f81b0319906108f090600f168661180a565b511691600301806003116109185761090d6001935f1a918761180a565b5301908c9291610814565b634e487b7160e01b5f52601160045260245ffd5b634e487b7160e01b5f52603260045260245ffd5b6109736001602080938b519481869251918291018484015e8101600b60fa1b838201520301601e198101845201826110e0565b61079c565b879650908a6109b06001602080958b519681889251918291018484015e8101605d60f81b838201520301601e198101865201846110e0565b875191610100830183811067ffffffffffffffff821117610c585784936007918b5286815289888a8d602085013381528186019088825260608701928a84526080880194855260a0880195865260c088019642885260e089019d8e525f5260056020525f209651875560018060a01b03905116600187019060018060a01b03166001600160601b0360a01b82541617905560018060a01b03905116600286019060018060a01b03166001600160601b0360a01b82541617905551600385015551600484015560018060a01b03905116600583019060018060a01b03166001600160601b0360a01b82541617905551600682015501935193845167ffffffffffffffff8111610c58578995610ac483546110a8565b601f8111610bfe575b50602090601f8311600114610b70579180610b489694927f1eee741af1e1f10c072e9d43c335b95894256a660d4663ecf1eae9771664618c9896945f92610b65575b50508160011b915f199060031b1c19161790555b8a5197885260208801528987015286606087015260c0608087015260c0860190611102565b934260a08201528033950390a46001805582519182526020820152f35b015190508e80610b0f565b90601f19831691845f52815f20925f5b818110610be357509260019285927f1eee741af1e1f10c072e9d43c335b95894256a660d4663ecf1eae9771664618c9a9896610b489a989610610bcb575b505050811b019055610b23565b01515f1960f88460031b161c191690558e8080610bbe565b8284015185558e9a5060019094019360209384019301610b80565b9091928094959697505f5260205f20601f840160051c81019160208510610c4e575b90601f8d99989796959493920160051c01905b818110610c405750610acd565b5f81558c9850600101610c33565b9091508190610c20565b634e487b7160e01b5f52604160045260245ffd5b5f5494959194610c879082906001600160a01b03168761176f565b810390811161091857939261075d610748565b8590630583371760e31b5f5260045260245260445ffd5b610cc7918a610cc136878961114a565b91611518565b9461072a565b96508c61071d565b87630583371760e31b5f526004525f60245260445ffd5b836020868c610d10604051948593849363b660f60160e01b855289600486016111a8565b03817f00000000000000000000000000000000000000000000000000000000000000006001600160a01b03165afa908115610d84575f91610d52575b506106ef565b90506020813d602011610d7c575b81610d6d602093836110e0565b8101031261017d57518d610d4c565b3d9150610d60565b6040513d5f823e3d90fd5b508188146106e7565b50816001600160a01b03610dab86611136565b16146106e1565b633378279360e01b5f5260045ffd5b63162908e360e11b5f5260045ffd5b633ee5aeb560e01b5f5260045ffd5b3461017d57602036600319011261017d576020610e02610dfd61104d565b611211565b6040519015158152f35b3461017d575f36600319011261017d57610e24611361565b5f80546001600160a01b0319811682556001600160a01b03167f8be0079c531659141344cd1fd0a4f28419497f9722a3daafe3b4186f6b6457e08280a3005b3461017d57606036600319011261017d57610e7c61104d565b60443567ffffffffffffffff811161017d57610e9c903690600401611077565b91908215610db257610ead81611136565b6001600160a01b03838116911603610db2575f1983018381116109185761063e610ed8918584611126565b6001600160a01b037f00000000000000000000000000000000000000000000000000000000000000008116911603610db257602091610f1b6106d236868561114a565b610f3d604051948593849363b660f60160e01b855260243590600486016111a8565b03817f00000000000000000000000000000000000000000000000000000000000000006001600160a01b03165afa8015610d84575f90610f83575b602090604051908152f35b506020813d602011610fae575b81610f9d602093836110e0565b8101031261017d5760209051610f78565b3d9150610f90565b3461017d57602036600319011261017d57600435610fd2611361565b600354811161052f5760407f07af09e2b23ebab5dd29fa2271d6ca4795031f308caf26ca605f4a719ffeed6191600254908060025582519182526020820152a1005b3461017d57602036600319011261017d576020906001600160a01b0361103861104d565b165f526006825260ff60405f20541615158152f35b600435906001600160a01b038216820361017d57565b35906001600160a01b038216820361017d57565b9181601f8401121561017d5782359167ffffffffffffffff831161017d576020808501948460051b01011161017d57565b90600182811c921680156110d6575b60208310146110c257565b634e487b7160e01b5f52602260045260245ffd5b91607f16916110b7565b90601f8019910116810190811067ffffffffffffffff821117610c5857604052565b805180835260209291819084018484015e5f828201840152601f01601f1916010190565b919081101561092c5760051b0190565b356001600160a01b038116810361017d5790565b9291909267ffffffffffffffff8411610c58578360051b906020604051611173828501826110e0565b809681520191810192831161017d57905b82821061119057505050565b6020809161119d84611063565b815201910190611184565b6001600160a01b03909116815260208101919091526060604082018190528101839052608001915f5b8181106111de5750505090565b909192602080600192838060a01b036111f688611063565b1681520194019291016111d1565b5190811515820361017d57565b6001600160a01b03908116907f00000000000000000000000000000000000000000000000000000000000000001681146113485760405163fdd0751760e01b815260048101919091525f816024817f00000000000000000000000000000000000000000000000000000000000000006001600160a01b03165afa908115610d84575f9161129c575090565b90503d805f833e6112ad81836110e0565b810160c08282031261017d576112c282611204565b916112cf60208201611204565b50604081015160ff81160361017d5760608101519067ffffffffffffffff821161017d570181601f8201121561017d57805167ffffffffffffffff8111610c585760405192611328601f8301601f1916602001856110e0565b8184526020828401011161017d575f928160208094018483015e01015290565b50600190565b8181029291811591840414171561091857565b5f546001600160a01b0316330361137457565b63118cdaa760e01b5f523360045260245ffd5b90602080835192838152019201905f5b8181106113a45750505090565b82516001600160a01b0316845260209384019390920191600101611397565b805182101561092c5760209160051b010190565b805115610db257600181511180611475575b610db2576002815111156114725760015b81515f1981019081116109185781101561146e576001600160a01b0361142082846113c3565b5116805f52600760205260ff60405f20541680611457575b61144557506001016113fa565b6306439c6b60e01b5f5260045260245ffd5b50805f52600660205260ff60405f20541615611438565b5050565b50565b50604051633ce5cd6d60e11b8152602060048201819052818061149b6024820186611387565b03817f00000000000000000000000000000000000000000000000000000000000000006001600160a01b03165afa908115610d84575f916114de575b50156113e9565b90506020813d602011611510575b816114f9602093836110e0565b8101031261017d5761150a90611204565b5f6114d7565b3d91506114ec565b604051636eb1769f60e11b81523060048201526001600160a01b037f0000000000000000000000000000000000000000000000000000000000000000811660248301819052939593921690602081604481855afa908115610d84575f9161173d575b508581018091116109185760405163095ea7b360e01b60208083019182526001600160a01b03861660248401526044808401949094529282529091905f906115c36064856110e0565b83519082865af15f513d82611721575b5050156116dd575b50835160018111156116d55760020361167b5783516001101561092c575f60a49260406020960160018060a01b0390511694604051978896879563d5bcb9b560e01b875260048701526024860152604485015260648401523060848401525af1908115610d84575f9161164c575090565b90506020813d602011611673575b81611667602093836110e0565b8101031261017d575190565b3d915061165a565b925f6020946116af949660405197889687958694634c6a918560e11b8652600486015260a0602486015260a4850190611387565b916044840152606483015230608483015203925af1908115610d84575f9161164c575090565b505050505090565b61171b9061171560405163095ea7b360e01b60208201528560248201525f60448201526044815261170f6064826110e0565b846117b2565b826117b2565b5f6115db565b9091506117355750813b15155b5f806115d3565b60011461172e565b90506020813d602011611767575b81611758602093836110e0565b8101031261017d57515f61157a565b3d915061174b565b60405163a9059cbb60e01b60208201526001600160a01b039290921660248301526044808301939093529181526117b0916117ab6064836110e0565b6117b2565b565b905f602091828151910182855af115610d84575f513d61180157506001600160a01b0381163b155b6117e15750565b635274afe760e01b5f9081526001600160a01b0391909116600452602490fd5b600114156117da565b90815181101561092c57016020019056fea26469706673582212201fc5346d7de4b365057de068afa147a1833f9e16dc23a0fc84c5bc8e1f900c3264736f6c634300081c0033",
  "linkReferences": {},
  "deployedLinkReferences": {},
  "immutableReferences": {
    "10586": [
      {
        "length": 32,
        "start": 463
      }
    ],
    "10589": [
      {
        "length": 32,
        "start": 531
      },
      {
        "length": 32,
        "start": 5429
      }
    ],
    "10592": [
      {
        "length": 32,
        "start": 775
      },
      {
        "length": 32,
        "start": 3348
      },
      {
        "length": 32,
        "start": 3905
      },
      {
        "length": 32,
        "start": 4705
      },
      {
        "length": 32,
        "start": 5279
      }
    ],
    "10594": [
      {
        "length": 32,
        "start": 1366
      },
      {
        "length": 32,
        "start": 1613
      },
      {
        "length": 32,
        "start": 3810
      },
      {
        "length": 32,
        "start": 4639
      }
    ]
  },
  "inputSourceName": "project/contracts/GravityPayment.sol",
  "buildInfoId": "solc-0_8_28-0c66f8a549af75c1f7cf7264ac1907b07b482364"
}