{
  "_format": "hh3-artifact-1",
  "contractName": "TokenRouter",
  "sourceName": "contracts/TokenRouter.sol",
  "abi": [
    {
      "inputs": [
        {
          "internalType": "address",
          "name": "_poolManager",
          "type": "address"
        }
      ],
      "stateMutability": "nonpayable",
      "type": "constructor"
    },
    {
      "inputs": [],
      "name": "InvalidRate",
      "type": "error"
    },
    {
      "inputs": [
        {
          "internalType": "address",
          "name": "token",
          "type": "address"
        }
      ],
      "name": "InvalidTokenAddress",
      "type": "error"
    },
    {
      "inputs": [
        {
          "internalType": "address",
          "name": "tokenIn",
          "type": "address"
        },
        {
          "internalType": "address",
          "name": "tokenOut",
          "type": "address"
        }
      ],
      "name": "NoPathFound",
      "type": "error"
    },
    {
      "inputs": [
        {
          "internalType": "address",
          "name": "owner",
          "type": "address"
        }
      ],
      "name": "OwnableInvalidOwner",
      "type": "error"
    },
    {
      "inputs": [
        {
          "internalType": "address",
          "name": "account",
          "type": "address"
        }
      ],
      "name": "OwnableUnauthorizedAccount",
      "type": "error"
    },
    {
      "inputs": [
        {
          "internalType": "address",
          "name": "token",
          "type": "address"
        }
      ],
      "name": "TokenNotRegistered",
      "type": "error"
    },
    {
      "anonymous": false,
      "inputs": [
        {
          "indexed": true,
          "internalType": "address",
          "name": "token",
          "type": "address"
        },
        {
          "indexed": false,
          "internalType": "bool",
          "name": "isIntermediate",
          "type": "bool"
        }
      ],
      "name": "IntermediateTokenUpdated",
      "type": "event"
    },
    {
      "anonymous": false,
      "inputs": [
        {
          "indexed": true,
          "internalType": "address",
          "name": "previousOwner",
          "type": "address"
        },
        {
          "indexed": true,
          "internalType": "address",
          "name": "newOwner",
          "type": "address"
        }
      ],
      "name": "OwnershipTransferred",
      "type": "event"
    },
    {
      "anonymous": false,
      "inputs": [
        {
          "indexed": true,
          "internalType": "address",
          "name": "token0",
          "type": "address"
        },
        {
          "indexed": true,
          "internalType": "address",
          "name": "token1",
          "type": "address"
        },
        {
          "indexed": false,
          "internalType": "uint256",
          "name": "rateWad",
          "type": "uint256"
        }
      ],
      "name": "PoolRateUpdated",
      "type": "event"
    },
    {
      "anonymous": false,
      "inputs": [
        {
          "indexed": true,
          "internalType": "address",
          "name": "token0",
          "type": "address"
        },
        {
          "indexed": true,
          "internalType": "address",
          "name": "token1",
          "type": "address"
        },
        {
          "indexed": false,
          "internalType": "uint24",
          "name": "fee",
          "type": "uint24"
        }
      ],
      "name": "PoolRegistered",
      "type": "event"
    },
    {
      "anonymous": false,
      "inputs": [
        {
          "indexed": true,
          "internalType": "address",
          "name": "token0",
          "type": "address"
        },
        {
          "indexed": true,
          "internalType": "address",
          "name": "token1",
          "type": "address"
        }
      ],
      "name": "PoolRemoved",
      "type": "event"
    },
    {
      "anonymous": false,
      "inputs": [
        {
          "indexed": true,
          "internalType": "address",
          "name": "token",
          "type": "address"
        },
        {
          "indexed": false,
          "internalType": "string",
          "name": "symbol",
          "type": "string"
        },
        {
          "indexed": false,
          "internalType": "uint8",
          "name": "decimals",
          "type": "uint8"
        }
      ],
      "name": "TokenRegistered",
      "type": "event"
    },
    {
      "anonymous": false,
      "inputs": [
        {
          "indexed": true,
          "internalType": "address",
          "name": "token",
          "type": "address"
        }
      ],
      "name": "TokenRemoved",
      "type": "event"
    },
    {
      "inputs": [],
      "name": "MAX_HOPS",
      "outputs": [
        {
          "internalType": "uint256",
          "name": "",
          "type": "uint256"
        }
      ],
      "stateMutability": "view",
      "type": "function"
    },
    {
      "inputs": [],
      "name": "MIN_LIQUIDITY_SCORE",
      "outputs": [
        {
          "internalType": "uint256",
          "name": "",
          "type": "uint256"
        }
      ],
      "stateMutability": "view",
      "type": "function"
    },
    {
      "inputs": [
        {
          "internalType": "address",
          "name": "tokenIn",
          "type": "address"
        },
        {
          "internalType": "uint256",
          "name": "amountIn",
          "type": "uint256"
        },
        {
          "internalType": "address[]",
          "name": "path",
          "type": "address[]"
        }
      ],
      "name": "calculateExpectedOutput",
      "outputs": [
        {
          "internalType": "uint256",
          "name": "expectedOutput",
          "type": "uint256"
        }
      ],
      "stateMutability": "view",
      "type": "function"
    },
    {
      "inputs": [
        {
          "internalType": "address",
          "name": "tokenA",
          "type": "address"
        },
        {
          "internalType": "address",
          "name": "tokenB",
          "type": "address"
        }
      ],
      "name": "checkDirectPool",
      "outputs": [
        {
          "internalType": "bool",
          "name": "exists",
          "type": "bool"
        }
      ],
      "stateMutability": "view",
      "type": "function"
    },
    {
      "inputs": [],
      "name": "getIntermediateTokens",
      "outputs": [
        {
          "internalType": "address[]",
          "name": "tokens",
          "type": "address[]"
        }
      ],
      "stateMutability": "view",
      "type": "function"
    },
    {
      "inputs": [
        {
          "internalType": "address",
          "name": "token",
          "type": "address"
        }
      ],
      "name": "getNeighbors",
      "outputs": [
        {
          "internalType": "address[]",
          "name": "neighbors",
          "type": "address[]"
        }
      ],
      "stateMutability": "view",
      "type": "function"
    },
    {
      "inputs": [
        {
          "internalType": "address",
          "name": "tokenA",
          "type": "address"
        },
        {
          "internalType": "address",
          "name": "tokenB",
          "type": "address"
        }
      ],
      "name": "getPoolRate",
      "outputs": [
        {
          "internalType": "uint256",
          "name": "rateWad",
          "type": "uint256"
        }
      ],
      "stateMutability": "view",
      "type": "function"
    },
    {
      "inputs": [],
      "name": "getSupportedTokens",
      "outputs": [
        {
          "internalType": "address[]",
          "name": "tokens",
          "type": "address[]"
        }
      ],
      "stateMutability": "view",
      "type": "function"
    },
    {
      "inputs": [
        {
          "internalType": "address",
          "name": "",
          "type": "address"
        },
        {
          "internalType": "address",
          "name": "",
          "type": "address"
        }
      ],
      "name": "hasDirectPool",
      "outputs": [
        {
          "internalType": "bool",
          "name": "",
          "type": "bool"
        }
      ],
      "stateMutability": "view",
      "type": "function"
    },
    {
      "inputs": [
        {
          "internalType": "uint256",
          "name": "",
          "type": "uint256"
        }
      ],
      "name": "intermediateTokens",
      "outputs": [
        {
          "internalType": "address",
          "name": "",
          "type": "address"
        }
      ],
      "stateMutability": "view",
      "type": "function"
    },
    {
      "inputs": [],
      "name": "owner",
      "outputs": [
        {
          "internalType": "address",
          "name": "",
          "type": "address"
        }
      ],
      "stateMutability": "view",
      "type": "function"
    },
    {
      "inputs": [
        {
          "internalType": "bytes32",
          "name": "",
          "type": "bytes32"
        }
      ],
      "name": "poolExchangeRates",
      "outputs": [
        {
          "internalType": "uint256",
          "name": "",
          "type": "uint256"
        }
      ],
      "stateMutability": "view",
      "type": "function"
    },
    {
      "inputs": [],
      "name": "poolManager",
      "outputs": [
        {
          "internalType": "contract IPoolManager",
          "name": "",
          "type": "address"
        }
      ],
      "stateMutability": "view",
      "type": "function"
    },
    {
      "inputs": [
        {
          "internalType": "bytes32",
          "name": "",
          "type": "bytes32"
        }
      ],
      "name": "poolRegistry",
      "outputs": [
        {
          "components": [
            {
              "internalType": "Currency",
              "name": "currency0",
              "type": "address"
            },
            {
              "internalType": "Currency",
              "name": "currency1",
              "type": "address"
            },
            {
              "internalType": "uint24",
              "name": "fee",
              "type": "uint24"
            },
            {
              "internalType": "int24",
              "name": "tickSpacing",
              "type": "int24"
            },
            {
              "internalType": "contract IHooks",
              "name": "hooks",
              "type": "address"
            }
          ],
          "internalType": "struct PoolKey",
          "name": "poolKey",
          "type": "tuple"
        },
        {
          "internalType": "uint24",
          "name": "fee",
          "type": "uint24"
        },
        {
          "internalType": "int24",
          "name": "tickSpacing",
          "type": "int24"
        },
        {
          "internalType": "uint256",
          "name": "volume24h",
          "type": "uint256"
        },
        {
          "internalType": "uint256",
          "name": "lastUpdated",
          "type": "uint256"
        },
        {
          "internalType": "bool",
          "name": "isActive",
          "type": "bool"
        }
      ],
      "stateMutability": "view",
      "type": "function"
    },
    {
      "inputs": [
        {
          "internalType": "address",
          "name": "tokenA",
          "type": "address"
        },
        {
          "internalType": "address",
          "name": "tokenB",
          "type": "address"
        },
        {
          "internalType": "uint24",
          "name": "fee",
          "type": "uint24"
        },
        {
          "internalType": "int24",
          "name": "tickSpacing",
          "type": "int24"
        }
      ],
      "name": "registerPool",
      "outputs": [],
      "stateMutability": "nonpayable",
      "type": "function"
    },
    {
      "inputs": [
        {
          "internalType": "address",
          "name": "token",
          "type": "address"
        },
        {
          "internalType": "string",
          "name": "symbol",
          "type": "string"
        },
        {
          "internalType": "uint8",
          "name": "decimals",
          "type": "uint8"
        },
        {
          "internalType": "uint256",
          "name": "liquidityScore",
          "type": "uint256"
        }
      ],
      "name": "registerToken",
      "outputs": [],
      "stateMutability": "nonpayable",
      "type": "function"
    },
    {
      "inputs": [],
      "name": "renounceOwnership",
      "outputs": [],
      "stateMutability": "nonpayable",
      "type": "function"
    },
    {
      "inputs": [
        {
          "internalType": "address",
          "name": "token",
          "type": "address"
        },
        {
          "internalType": "bool",
          "name": "isIntermediate",
          "type": "bool"
        }
      ],
      "name": "setIntermediateToken",
      "outputs": [],
      "stateMutability": "nonpayable",
      "type": "function"
    },
    {
      "inputs": [
        {
          "internalType": "address",
          "name": "tokenA",
          "type": "address"
        },
        {
          "internalType": "address",
          "name": "tokenB",
          "type": "address"
        },
        {
          "internalType": "uint256",
          "name": "rateWad",
          "type": "uint256"
        }
      ],
      "name": "setPoolExchangeRate",
      "outputs": [],
      "stateMutability": "nonpayable",
      "type": "function"
    },
    {
      "inputs": [
        {
          "internalType": "uint256",
          "name": "",
          "type": "uint256"
        }
      ],
      "name": "supportedTokens",
      "outputs": [
        {
          "internalType": "address",
          "name": "",
          "type": "address"
        }
      ],
      "stateMutability": "view",
      "type": "function"
    },
    {
      "inputs": [
        {
          "internalType": "address",
          "name": "",
          "type": "address"
        }
      ],
      "name": "tokenRegistry",
      "outputs": [
        {
          "internalType": "bool",
          "name": "isSupported",
          "type": "bool"
        },
        {
          "internalType": "bool",
          "name": "isIntermediate",
          "type": "bool"
        },
        {
          "internalType": "uint8",
          "name": "decimals",
          "type": "uint8"
        },
        {
          "internalType": "string",
          "name": "symbol",
          "type": "string"
        },
        {
          "internalType": "uint256",
          "name": "liquidityScore",
          "type": "uint256"
        },
        {
          "internalType": "uint256",
          "name": "lastUpdated",
          "type": "uint256"
        }
      ],
      "stateMutability": "view",
      "type": "function"
    },
    {
      "inputs": [
        {
          "internalType": "address",
          "name": "newOwner",
          "type": "address"
        }
      ],
      "name": "transferOwnership",
      "outputs": [],
      "stateMutability": "nonpayable",
      "type": "function"
    },
    {
      "inputs": [
        {
          "internalType": "address",
          "name": "token",
          "type": "address"
        },
        {
          "internalType": "uint256",
          "name": "score",
          "type": "uint256"
        }
      ],
      "name": "updateLiquidityScore",
      "outputs": [],
      "stateMutability": "nonpayable",
      "type": "function"
    },
    {
      "inputs": [
        {
          "internalType": "address[]",
          "name": "path",
          "type": "address[]"
        }
      ],
      "name": "validatePath",
      "outputs": [
        {
          "internalType": "bool",
          "name": "",
          "type": "bool"
        }
      ],
      "stateMutability": "view",
      "type": "function"
    }
  ],
  "bytecode": "0x60a0346100ca57601f611c5e38819003918201601f19168301916001600160401b038311848410176100ce578084926020946040528339810103126100ca57516001600160a01b038116908190036100ca5733156100b7575f8054336001600160a01b0319821681178355604051939290916001600160a01b0316907f8be0079c531659141344cd1fd0a4f28419497f9722a3daafe3b4186f6b6457e09080a3608052611b7b90816100e38239608051816104f80152f35b631e4fbdf760e01b5f525f60045260245ffd5b5f80fd5b634e487b7160e01b5f52604160045260245ffdfe60806040526004361015610011575f80fd5b5f3560e01c806313ea552e14611251578063327dc6c71461120f5780633a734673146111f45780636453b29114610e7a5780636cccff2814610dff578063715018a614610da857806374c4c70214610d7e57806379cb9ada14610d395780637eca532d14610b335780638c51222e14610b185780638da5cb5b14610af157806398ede01a146105a45780639c4c819a14610a64578063a39e3e42146106f0578063b660f601146106a7578063be4b7eda14610673578063c6255626146105fb578063d2b9c80a146105a4578063d3c7c2c714610527578063dc4c90d3146104e3578063e08626e114610456578063f2fde38b146103d1578063f7fee486146102435763fdd0751714610121575f80fd5b3461023f57602036600319011261023f576001600160a01b036101426113eb565b165f52600160205260405f20805460018201916040515f93805490610166826114d0565b808452916001811690811561021957506001146101df575b505061018e8160ff950382611349565b6101d0600360028401549301549160405195858188971615158752818160081c161515602088015260101c16604086015260c0606086015260c0850190611508565b91608084015260a08301520390f35b9094505f5260205f205f905b85821061020357508101602001935061018e8161017e565b60018160209254838587010152019101906101eb565b60ff9750849250602091509261018e9388191682840152151560051b820101955061017e565b5f80fd5b3461023f57606036600319011261023f5761025c6113eb565b610264611401565b9060443590610271611798565b6001600160a01b03811680158080156103c0575b61038f5750821561038057805f52600860205260405f2060018060a01b0385165f5260205260405f205480158015610366575b610343575f9081526005602052604090208390556001600160a01b03841611156103195760207f7c039ae3891285b072ed71c8b500fea9731ad6d5d923c6e2eb30f79019955db991935b6040519384526001600160a01b03908116941692a3005b7f7c039ae3891285b072ed71c8b500fea9731ad6d5d923c6e2eb30f79019955db990602090610302565b63ea0e3b0d60e01b5f90815260048390526001600160a01b038616602452604490fd5b50805f52600460205260ff600660405f20015416156102b8565b636a43f8d160e01b5f5260045ffd5b849150156103b957505b637330680360e01b5f9081526001600160a01b0391909116600452602490fd5b9050610399565b506001600160a01b03851615610285565b3461023f57602036600319011261023f576103ea6113eb565b6103f2611798565b6001600160a01b03168015610443575f80546001600160a01b03198116831782556001600160a01b0316907f8be0079c531659141344cd1fd0a4f28419497f9722a3daafe3b4186f6b6457e09080a3005b631e4fbdf760e01b5f525f60045260245ffd5b3461023f575f36600319011261023f5760405180602060035491828152019060035f527fc2575a0e9e593c00f959f8c92f12db2869c3395a3b0502d05e2516446f71f85b905f5b8181106104c4576104c0856104b481870382611349565b60405191829182611417565b0390f35b82546001600160a01b031684526020909301926001928301920161049d565b3461023f575f36600319011261023f576040517f00000000000000000000000000000000000000000000000000000000000000006001600160a01b03168152602090f35b3461023f575f36600319011261023f5760405180602060025491828152019060025f527f405787fa12a823e0f2b7631cc41b3ba8828b3321ca811111fa75cd3aa3bb5ace905f5b818110610585576104c0856104b481870382611349565b82546001600160a01b031684526020909301926001928301920161056e565b3461023f57604036600319011261023f576105bd6113eb565b6105c5611401565b9060018060a01b03165f52600660205260405f209060018060a01b03165f52602052602060ff60405f2054166040519015158152f35b3461023f57602036600319011261023f5760043560025481101561023f5760025481101561065f5760025f527f405787fa12a823e0f2b7631cc41b3ba8828b3321ca811111fa75cd3aa3bb5ace01546040516001600160a01b039091168152602090f35b634e487b7160e01b5f52603260045260245ffd5b3461023f57604036600319011261023f57602061069f6106916113eb565b610699611401565b9061174a565b604051908152f35b3461023f57606036600319011261023f576106c06113eb565b60443567ffffffffffffffff811161023f576020916106e661069f923690600401611459565b906024359061165b565b3461023f57608036600319011261023f576107096113eb565b60243567ffffffffffffffff811161023f573660238201121561023f57806004013567ffffffffffffffff81116109805760405191610752601f8301601f191660200184611349565b818352366024838301011161023f57815f9260246020930183860137830101526044359060ff821680920361023f576064359261078d611798565b6001600160a01b038116938415610a51575f8581526001602052604090205460ff818116159260089290921c16906103e8811115610a4b57506103e8905b604051916107d88361132d565b600183526020830191151582526040830187815260608401908782526080850192835261084260a08601944286528b5f52600160205261082b60405f2097511515889060ff801983541691151516179055565b51865461ff00191690151560081b61ff0016178655565b51845462ff0000191660109190911b62ff000016178455518051600185019167ffffffffffffffff82116109805761087a83546114d0565b601f8111610a06575b50602090601f831160011461099f57600395949392915f9183610994575b50508160011b915f1990871b1c19161790555b51600284015551910155610909575b506108fe907fcf66acda7673c71cd9458c59067eb30a473eeaf2fa05d008acf47616cbbbe01c92604051928392604084526040840190611508565b9060208301520390a2005b9060025492600160401b841015610980576109786108fe936109548660017fcf66acda7673c71cd9458c59067eb30a473eeaf2fa05d008acf47616cbbbe01c980160025560026113d6565b81546001600160a01b0393841660039290921b91821b9390911b1916919091179055565b9250906108c3565b634e487b7160e01b5f52604160045260245ffd5b015190508c806108a1565b90601f19831691845f52815f20925f5b8181106109ee575091600193918560039998979694106109d7575b505050811b0190556108b4565b01515f1983891b60f8161c191690558c80806109ca565b929360206001819287860151815501950193016109af565b835f5260205f20601f840160051c81019160208510610a41575b601f0160051c01905b818110610a365750610883565b5f8155600101610a29565b9091508190610a20565b906107cb565b84637330680360e01b5f5260045260245ffd5b3461023f57604036600319011261023f57610a7d6113eb565b60243590610a89611798565b6001600160a01b03165f8181526001602052604090205490919060ff1615610ade576103e8811115610ad957506103e85b5f91825260016020526040909120600281019190915542600390910155005b610aba565b5063ddef98d760e01b5f5260045260245ffd5b3461023f575f36600319011261023f575f546040516001600160a01b039091168152602090f35b3461023f575f36600319011261023f57602060405160058152f35b3461023f57604036600319011261023f57610b4c6113eb565b602435801590811580820361023f57610b63611798565b6001600160a01b0384165f8181526001602052604090205490949060ff1615610d26575f935f5b60035480821015610d1b5787610b9f836113be565b905460039190911b1c6001600160a01b031614610bbf5750600101610b8a565b919293949550600192610c8f575b50505b1580610c88575b610c31575b50602090610c287fccc78d851d9797a1f98759a6191245eb78bcaf365244fbc4fb49c7db956cbe0893855f526001845260405f209061ff00825491151560081b169061ff001916179055565b604051908152a2005b9060035491600160401b831015610980577fccc78d851d9797a1f98759a6191245eb78bcaf365244fbc4fb49c7db956cbe0893610c7f610c28926109548660016020980160035560036113d6565b93505090610bdc565b5082610bd7565b5f198201918211610d0757610954610ca9610cc1936113be565b905460039190911b1c6001600160a01b0316916113be565b6003548015610cf3575f1901610cd6816113be565b81546001600160a01b03600392831b1b1916909155558580610bcd565b634e487b7160e01b5f52603160045260245ffd5b634e487b7160e01b5f52601160045260245ffd5b505050909192610bd0565b8463ddef98d760e01b5f5260045260245ffd5b3461023f57602036600319011261023f5760043567ffffffffffffffff811161023f57610d74610d6f6020923690600401611459565b61154d565b6040519015158152f35b3461023f57602036600319011261023f576004355f526005602052602060405f2054604051908152f35b3461023f575f36600319011261023f57610dc0611798565b5f80546001600160a01b0319811682556001600160a01b03167f8be0079c531659141344cd1fd0a4f28419497f9722a3daafe3b4186f6b6457e08280a3005b3461023f57602036600319011261023f576001600160a01b03610e206113eb565b165f52600760205260405f206040519081602082549182815201915f5260205f20905f5b818110610e5b576104c0856104b481870382611349565b82546001600160a01b0316845260209093019260019283019201610e44565b3461023f57608036600319011261023f57610e936113eb565b610e9b611401565b60443562ffffff811680910361023f57606435928360020b80940361023f57610ec2611798565b6001600160a01b0381169283158080156111e3575b6111bd5750835f52600160205260ff60405f20541615801561119b575b61115b576001600160a01b038116947fbe11095f007c1eb89c3da0b86ef5d7d1cad68573b5ddf2580f4620a3e4919298936020939092611145926110b889891080156111545789905b1561114e578a5b60405191610f5183611311565b60018060a01b0316825260018060a01b0316888201528660408201528260608201525f6080820152600660a082209360405192610f8d8461132d565b835289830189815260408401918252606084015f8152608085019142835260a086019360018552885f5260048e5260405f20965160018060a01b0360018060a01b03825116166001600160601b0360a01b8954161788556001880160018060a01b0360018060a01b03602084015116166001600160601b0360a01b82541617815560408201518154606084015160b81b62ffffff60b81b169162ffffff60a01b9060a01b169065ffffffffffff60a01b191617179055608060018060a01b0391015116600288019060018060a01b03166001600160601b0360a01b82541617905562ffffff600388019251168254915160181b65ffffff000000169165ffffffffffff19161717905551600485015551600584015551151591019060ff801983541691151516179055565b805f5260058652670de0b6b3a764000060405f2055875f526008865260405f20895f5286528060405f2055885f526008865260405f20885f52865260405f2055865f526006855260405f20885f52855260405f20600160ff19825416179055875f526006855260405f20875f52855260405f20600160ff1982541617905561114081836118f5565b6118f5565b604051908152a3005b89610f44565b8a90610f3d565b835f52600160205260ff60405f205416155f1461119457505b63ddef98d760e01b5f9081526001600160a01b0391909116600452602490fd5b9050611174565b506001600160a01b0381165f9081526001602052604090205460ff1615610ef4565b156103b95750637330680360e01b5f9081526001600160a01b0391909116600452602490fd5b506001600160a01b03821615610ed7565b3461023f575f36600319011261023f57602060405160648152f35b3461023f57602036600319011261023f5760043560035481101561023f576112386020916113be565b905460405160039290921b1c6001600160a01b03168152f35b3461023f57602036600319011261023f576004355f52600460205261014060405f2061127c8161136b565b90600381015490600481015460ff6006600584015493015416926040519460018060a01b03815116865260018060a01b03602082015116602087015262ffffff6040820151166040870152606081015160020b6060870152608060018060a01b0391015116608086015262ffffff811660a086015260181c60020b60c085015260e08401526101008301521515610120820152f35b60a0810190811067ffffffffffffffff82111761098057604052565b60c0810190811067ffffffffffffffff82111761098057604052565b90601f8019910116810190811067ffffffffffffffff82111761098057604052565b9060405161137881611311565b82546001600160a01b0390811682526001840154808216602084015260a081901c62ffffff16604084015260b81c600290810b6060840152909301549092166080830152565b60035481101561065f5760035f5260205f2001905f90565b805482101561065f575f5260205f2001905f90565b600435906001600160a01b038216820361023f57565b602435906001600160a01b038216820361023f57565b60206040818301928281528451809452019201905f5b81811061143a5750505090565b82516001600160a01b031684526020938401939092019160010161142d565b81601f8201121561023f5780359167ffffffffffffffff8311610980578260051b916040519361148c6020850186611349565b845260208085019382010191821161023f57602001915b8183106114b05750505090565b82356001600160a01b038116810361023f578152602092830192016114a3565b90600182811c921680156114fe575b60208310146114ea57565b634e487b7160e01b5f52602260045260245ffd5b91607f16916114df565b805180835260209291819084018484015e5f828201840152601f01601f1916010190565b80511561065f5760200190565b805182101561065f5760209160051b010190565b805180156115ab576001146116355780515f198101908111610d0757600510611630575f5b81518110156115b1576001600160a01b0361158d8284611539565b51165f52600160205260ff60405f205416156115ab57600101611572565b50505f90565b505f5b81515f198101908111610d0757811015611629576001600160a01b036115da8284611539565b51165f52600660205260405f2060018201808311610d07576001600160a01b03906116059085611539565b511660018060a01b03165f5260205260ff60405f205416156115ab576001016115b4565b5050600190565b505f90565b6001600160a01b03906116479061152c565b51165f52600160205260ff60405f20541690565b825115908115611721575b506115ab5780156115ab57600182511461171c57905f915b81515f198101908111610d0757831015611716576001600160a01b036116a48484611539565b51169060018401808511610d07576116d1906001600160a01b03906116c99086611539565b5116836117be565b9492959150921561170b5793516116f4946001600160a01b03909116149061188d565b918215611704576001019161167e565b5050505f90565b505050505050505f90565b91505090565b905090565b90506001600160a01b036117348461152c565b516001600160a01b03909216911614155f611666565b60018060a01b03165f52600860205260405f209060018060a01b03165f5260205260405f20548015611630575f52600560205260405f205490811561178b57565b670de0b6b3a76400009150565b5f546001600160a01b031633036117ab57565b63118cdaa760e01b5f523360045260245ffd5b91604051916117cc83611311565b5f8084526020808501829052604080860183905260608601839052608086018390526001600160a01b039687168352600882528083209690931682529490945283205491838184156118805750835f52600460205260405f209460ff6006870154161561187557505050815f52600560205260405f20548015611866575b62ffffff6003850154169161186060019561136b565b93929190565b50670de0b6b3a764000061184a565b5f9550919392909190565b5f95509392859250829150565b919290821580156118ed575b6118e557156118d6576118ab91611a3a565b905b81156115ab5762ffffff6118c2911682611ad0565b818110156115ab578103908111610d075790565b6118df91611972565b906118ad565b505050505f90565b508115611899565b6001600160a01b03165f90815260076020526040812080549092915b81811061193e575050815491600160401b831015610980578261095491600161193c950181556113d6565b565b61194881856113d6565b905460039190911b1c6001600160a01b039081169084161461196c57600101611911565b50505050565b5f19670de0b6b3a7640000820991670de0b6b3a7640000820291828085109403938085039414611a195783821115611a0157670de0b6b3a7640000829109815f0382168092046002816003021880820260020302808202600203028082026002030280820260020302808202600203028091026002030293600183805f03040190848311900302920304170290565b50634e487b715f52156003026011186020526024601cfd5b5080925015611a26570490565b634e487b7160e01b5f52601260045260245ffd5b9091905f905f198482099084810292838084109303928084039314611abd5782670de0b6b3a76400001115611aab57507faccb18165bd6fe31ae1cf318dc5b51eee0e1ba569b88cd74c1773b91fac106699394670de0b6b3a7640000910990828211900360ee1b910360121c170290565b634e487b71905260116020526024601cfd5b505050670de0b6b3a76400009192500490565b9091905f905f198482099084810292838084109303928084039314611b375782620f42401115611aab57507fde8f6cefed634549b62c77574f722e1ac57e23f24d8fd5cb790fb65668c261399394620f4240910990828211900360fa1b910360061c170290565b505050620f4240919250049056fea26469706673582212208f011da5a437726a5e3bed5eb08ca9f9869fd480d9ddffc377c8cfcc5e58242264736f6c634300081c0033",
  "linkReferences": {},
  "deployedLinkReferences": {},
  "immutableReferences": {
    "12492": [
      {
        "length": 32,
        "start": 1272
      }
    ]
  },
  "inputSourceName": "project/contracts/TokenRouter.sol",
  "buildInfoId": "solc-0_8_28-0c66f8a549af75c1f7cf7264ac1907b07b482364"
}